:020000040000FA
:02000000502886
:080008009500910B0F28900AEE
:1000100015301002031D0D28900132309100D930A7
:0800200081000B111508090015
:1000A0008316803085008600853081008312A03061
:1000B0008B00D9308100323091009001920185018E
:1000C0001008861B65287D2860286728602882071D
:1000D00026299328A8289328BD28D228E728E7288E
:1000E000E728E72826293B29D2289328FC2811292C
:1000F0003B29502950295029502982076529BD28BC
:10010000FC281129BD287A29E728E728E728E728CD
:100110009328FC281129262993281129BD28502924
:10012000502950295029C030860001308F21B73026
:10013000860002308F21B730860004308F21B7301F
:10014000860008308F21C030860010308F21602853
:10015000BF30860001308F21B730860002308F21FA
:10016000B730860004308F21B730860008308F21E9
:100170008030860010308F216028BE30860001302C
:100180008F21B630860002308F21B63086000430D1
:100190008F21B630860008308F21803086001030E5
:1001A0008F216028FE30860001308F21FE308600CE
:1001B00002308F21FE30860004308F21FE30860011
:1001C00008308F218030860010308F216028F73072
:1001D000860001308F21F730860002308F21F73002
:1001E000860004308F21F730860008308F21F730E9
:1001F000860010308F2160288030860001308F21EA
:10020000FB30860002308F21F730860004308F21CA
:10021000EF30860008308F218030860010308F212B
:100220006028C130860001308F21BE308600023048
:100230008F21BE30860004308F21BE30860008300A
:100240008F218030860010308F216028CE308600CC
:1002500001308F21B530860002308F21B330860007
:1002600004308F21B730860008308F21803086001F
:1002700010308F216028C130860001308F21BE30C0
:10028000860002308F21BE30860004308F21BE30C0
:10029000860008308F21C130860010308F21602801
:1002A000D530860001308F21E330860002308F2167
:1002B0008030860004308F21E330860008308F21A3
:1002C000D530860010308F216028803086000130C4
:1002D0008F21DF30860002308F216F30860004309E
:1002E0008F21DF30860008308F218030860010306B
:1002F0008F2160289E30860001308F21AE3086002D
:1003000002308F21B630860004308F21BA3086004B
:1003100008308F21BC30860010308F216028850086
:08032000000000008501080047
:00000001FF
