:020000040000FA
:02000000502886
:080008009500910B0F28900AEE
:1000100015301002031D0D28900132309100D930A7
:0800200081000B111508090015
:1000A0008316803085008600853081008312A03061
:1000B0008B00D9308100323091009001920185018E
:1000C00010086328602882070C2979288E2879284F
:1000D000A328B828CD28CD28CD28CD280C29212922
:1000E000B8287928E228F7282129362936293629FF
:1000F0003629C030860001304B21B73086000230EF
:100100004B21B730860004304B21B73086000830D1
:100110004B21C030860010304B216028BF30860054
:1001200001304B21B730860002304B21B7308600BA
:1001300004304B21B730860008304B2180308600D8
:1001400010304B216028BE30860001304B21B63084
:10015000860002304B21B630860004304B21B63089
:10016000860008304B218030860010304B216028FB
:10017000FE30860001304B21FE30860002304B21DC
:10018000FE30860004304B21FE30860008304B21C3
:100190008030860010304B216028F7308600013017
:1001A0004B21F730860002304B21F73086000430B7
:1001B0004B21F730860008304B21F7308600103095
:1001C0004B2160288030860001304B21FB308600B7
:1001D00002304B21F730860004304B21EF3086008F
:1001E00008304B218030860010304B216028C13010
:1001F000860001304B21BE30860002304B21BE30DC
:10020000860004304B21BE30860008304B21803000
:10021000860010304B216028CE30860001304B2103
:10022000B530860002304B21B330860004304B21BC
:10023000B730860008304B218030860010304B21CB
:100240006028C130860001304B21BE30860002306C
:100250004B21BE30860004304B21BE308600083072
:100260004B21C130860010304B216028D5308600EC
:1002700001304B21E330860002304B218030860074
:1002800004304B21E330860008304B21D530860006
:1002900010304B2160288500000000008501080017
:00000001FF
